{
  "_format": "hh-sol-artifact-1",
  "contractName": "GreenHydrogenCredits",
  "sourceName": "contracts/GreenHydrogenCredits.sol",
  "abi": [
    {
      "inputs": [],
      "stateMutability": "nonpayable",
      "type": "constructor"
    },
    {
      "inputs": [
        {
          "internalType": "address",
          "name": "sender",
          "type": "address"
        },
        {
          "internalType": "uint256",
          "name": "balance",
          "type": "uint256"
        },
        {
          "internalType": "uint256",
          "name": "needed",
          "type": "uint256"
        },
        {
          "internalType": "uint256",
          "name": "tokenId",
          "type": "uint256"
        }
      ],
      "name": "ERC1155InsufficientBalance",
      "type": "error"
    },
    {
      "inputs": [
        {
          "internalType": "address",
          "name": "approver",
          "type": "address"
        }
      ],
      "name": "ERC1155InvalidApprover",
      "type": "error"
    },
    {
      "inputs": [
        {
          "internalType": "uint256",
          "name": "idsLength",
          "type": "uint256"
        },
        {
          "internalType": "uint256",
          "name": "valuesLength",
          "type": "uint256"
        }
      ],
      "name": "ERC1155InvalidArrayLength",
      "type": "error"
    },
    {
      "inputs": [
        {
          "internalType": "address",
          "name": "operator",
          "type": "address"
        }
      ],
      "name": "ERC1155InvalidOperator",
      "type": "error"
    },
    {
      "inputs": [
        {
          "internalType": "address",
          "name": "receiver",
          "type": "address"
        }
      ],
      "name": "ERC1155InvalidReceiver",
      "type": "error"
    },
    {
      "inputs": [
        {
          "internalType": "address",
          "name": "sender",
          "type": "address"
        }
      ],
      "name": "ERC1155InvalidSender",
      "type": "error"
    },
    {
      "inputs": [
        {
          "internalType": "address",
          "name": "operator",
          "type": "address"
        },
        {
          "internalType": "address",
          "name": "owner",
          "type": "address"
        }
      ],
      "name": "ERC1155MissingApprovalForAll",
      "type": "error"
    },
    {
      "inputs": [
        {
          "internalType": "address",
          "name": "owner",
          "type": "address"
        }
      ],
      "name": "OwnableInvalidOwner",
      "type": "error"
    },
    {
      "inputs": [
        {
          "internalType": "address",
          "name": "account",
          "type": "address"
        }
      ],
      "name": "OwnableUnauthorizedAccount",
      "type": "error"
    },
    {
      "anonymous": false,
      "inputs": [
        {
          "indexed": true,
          "internalType": "address",
          "name": "account",
          "type": "address"
        },
        {
          "indexed": true,
          "internalType": "address",
          "name": "operator",
          "type": "address"
        },
        {
          "indexed": false,
          "internalType": "bool",
          "name": "approved",
          "type": "bool"
        }
      ],
      "name": "ApprovalForAll",
      "type": "event"
    },
    {
      "anonymous": false,
      "inputs": [
        {
          "indexed": true,
          "internalType": "uint256",
          "name": "creditId",
          "type": "uint256"
        },
        {
          "indexed": false,
          "internalType": "uint256",
          "name": "amount",
          "type": "uint256"
        },
        {
          "indexed": false,
          "internalType": "string",
          "name": "renewableSource",
          "type": "string"
        },
        {
          "indexed": true,
          "internalType": "address",
          "name": "producerId",
          "type": "address"
        },
        {
          "indexed": false,
          "internalType": "string",
          "name": "facilityId",
          "type": "string"
        },
        {
          "indexed": false,
          "internalType": "uint256",
          "name": "timestamp",
          "type": "uint256"
        }
      ],
      "name": "CreditGenerated",
      "type": "event"
    },
    {
      "anonymous": false,
      "inputs": [
        {
          "indexed": true,
          "internalType": "uint256",
          "name": "creditId",
          "type": "uint256"
        },
        {
          "indexed": true,
          "internalType": "address",
          "name": "seller",
          "type": "address"
        },
        {
          "indexed": true,
          "internalType": "address",
          "name": "buyer",
          "type": "address"
        },
        {
          "indexed": false,
          "internalType": "uint256",
          "name": "amount",
          "type": "uint256"
        },
        {
          "indexed": false,
          "internalType": "uint256",
          "name": "totalPrice",
          "type": "uint256"
        },
        {
          "indexed": false,
          "internalType": "uint256",
          "name": "timestamp",
          "type": "uint256"
        }
      ],
      "name": "CreditPurchased",
      "type": "event"
    },
    {
      "anonymous": false,
      "inputs": [
        {
          "indexed": true,
          "internalType": "uint256",
          "name": "creditId",
          "type": "uint256"
        },
        {
          "indexed": true,
          "internalType": "address",
          "name": "owner",
          "type": "address"
        },
        {
          "indexed": false,
          "internalType": "uint256",
          "name": "timestamp",
          "type": "uint256"
        }
      ],
      "name": "CreditRetired",
      "type": "event"
    },
    {
      "anonymous": false,
      "inputs": [
        {
          "indexed": true,
          "internalType": "uint256",
          "name": "creditId",
          "type": "uint256"
        },
        {
          "indexed": true,
          "internalType": "address",
          "name": "from",
          "type": "address"
        },
        {
          "indexed": true,
          "internalType": "address",
          "name": "to",
          "type": "address"
        },
        {
          "indexed": false,
          "internalType": "uint256",
          "name": "amount",
          "type": "uint256"
        },
        {
          "indexed": false,
          "internalType": "uint256",
          "name": "timestamp",
          "type": "uint256"
        }
      ],
      "name": "CreditTransferred",
      "type": "event"
    },
    {
      "anonymous": false,
      "inputs": [
        {
          "indexed": true,
          "internalType": "uint256",
          "name": "creditId",
          "type": "uint256"
        },
        {
          "indexed": true,
          "internalType": "address",
          "name": "validator",
          "type": "address"
        },
        {
          "indexed": false,
          "internalType": "uint256",
          "name": "timestamp",
          "type": "uint256"
        }
      ],
      "name": "CreditValidated",
      "type": "event"
    },
    {
      "anonymous": false,
      "inputs": [
        {
          "indexed": true,
          "internalType": "string",
          "name": "facilityId",
          "type": "string"
        },
        {
          "indexed": false,
          "internalType": "string",
          "name": "name",
          "type": "string"
        },
        {
          "indexed": true,
          "internalType": "address",
          "name": "producerId",
          "type": "address"
        },
        {
          "indexed": false,
          "internalType": "uint256",
          "name": "timestamp",
          "type": "uint256"
        }
      ],
      "name": "FacilityCertified",
      "type": "event"
    },
    {
      "anonymous": false,
      "inputs": [
        {
          "indexed": true,
          "internalType": "address",
          "name": "previousOwner",
          "type": "address"
        },
        {
          "indexed": true,
          "internalType": "address",
          "name": "newOwner",
          "type": "address"
        }
      ],
      "name": "OwnershipTransferred",
      "type": "event"
    },
    {
      "anonymous": false,
      "inputs": [
        {
          "indexed": true,
          "internalType": "address",
          "name": "operator",
          "type": "address"
        },
        {
          "indexed": true,
          "internalType": "address",
          "name": "from",
          "type": "address"
        },
        {
          "indexed": true,
          "internalType": "address",
          "name": "to",
          "type": "address"
        },
        {
          "indexed": false,
          "internalType": "uint256[]",
          "name": "ids",
          "type": "uint256[]"
        },
        {
          "indexed": false,
          "internalType": "uint256[]",
          "name": "values",
          "type": "uint256[]"
        }
      ],
      "name": "TransferBatch",
      "type": "event"
    },
    {
      "anonymous": false,
      "inputs": [
        {
          "indexed": true,
          "internalType": "address",
          "name": "operator",
          "type": "address"
        },
        {
          "indexed": true,
          "internalType": "address",
          "name": "from",
          "type": "address"
        },
        {
          "indexed": true,
          "internalType": "address",
          "name": "to",
          "type": "address"
        },
        {
          "indexed": false,
          "internalType": "uint256",
          "name": "id",
          "type": "uint256"
        },
        {
          "indexed": false,
          "internalType": "uint256",
          "name": "value",
          "type": "uint256"
        }
      ],
      "name": "TransferSingle",
      "type": "event"
    },
    {
      "anonymous": false,
      "inputs": [
        {
          "indexed": false,
          "internalType": "string",
          "name": "value",
          "type": "string"
        },
        {
          "indexed": true,
          "internalType": "uint256",
          "name": "id",
          "type": "uint256"
        }
      ],
      "name": "URI",
      "type": "event"
    },
    {
      "inputs": [
        {
          "internalType": "address",
          "name": "validator",
          "type": "address"
        }
      ],
      "name": "addValidator",
      "outputs": [],
      "stateMutability": "nonpayable",
      "type": "function"
    },
    {
      "inputs": [
        {
          "internalType": "address",
          "name": "account",
          "type": "address"
        },
        {
          "internalType": "uint256",
          "name": "id",
          "type": "uint256"
        }
      ],
      "name": "balanceOf",
      "outputs": [
        {
          "internalType": "uint256",
          "name": "",
          "type": "uint256"
        }
      ],
      "stateMutability": "view",
      "type": "function"
    },
    {
      "inputs": [
        {
          "internalType": "address[]",
          "name": "accounts",
          "type": "address[]"
        },
        {
          "internalType": "uint256[]",
          "name": "ids",
          "type": "uint256[]"
        }
      ],
      "name": "balanceOfBatch",
      "outputs": [
        {
          "internalType": "uint256[]",
          "name": "",
          "type": "uint256[]"
        }
      ],
      "stateMutability": "view",
      "type": "function"
    },
    {
      "inputs": [
        {
          "internalType": "string",
          "name": "facilityId",
          "type": "string"
        },
        {
          "internalType": "string",
          "name": "name",
          "type": "string"
        },
        {
          "internalType": "string",
          "name": "location",
          "type": "string"
        },
        {
          "internalType": "string",
          "name": "renewableSource",
          "type": "string"
        },
        {
          "internalType": "uint256",
          "name": "capacity",
          "type": "uint256"
        }
      ],
      "name": "certifyFacility",
      "outputs": [
        {
          "internalType": "string",
          "name": "",
          "type": "string"
        }
      ],
      "stateMutability": "nonpayable",
      "type": "function"
    },
    {
      "inputs": [
        {
          "internalType": "uint256",
          "name": "",
          "type": "uint256"
        }
      ],
      "name": "credits",
      "outputs": [
        {
          "internalType": "uint256",
          "name": "id",
          "type": "uint256"
        },
        {
          "internalType": "uint256",
          "name": "amount",
          "type": "uint256"
        },
        {
          "internalType": "string",
          "name": "renewableSource",
          "type": "string"
        },
        {
          "internalType": "uint256",
          "name": "productionDate",
          "type": "uint256"
        },
        {
          "internalType": "address",
          "name": "producerId",
          "type": "address"
        },
        {
          "internalType": "string",
          "name": "facilityId",
          "type": "string"
        },
        {
          "internalType": "bool",
          "name": "isValidated",
          "type": "bool"
        },
        {
          "internalType": "address",
          "name": "validatedBy",
          "type": "address"
        },
        {
          "internalType": "uint256",
          "name": "validatedAt",
          "type": "uint256"
        },
        {
          "internalType": "bool",
          "name": "isRetired",
          "type": "bool"
        },
        {
          "internalType": "address",
          "name": "ownerId",
          "type": "address"
        },
        {
          "internalType": "uint256",
          "name": "price",
          "type": "uint256"
        },
        {
          "internalType": "uint256",
          "name": "createdAt",
          "type": "uint256"
        }
      ],
      "stateMutability": "view",
      "type": "function"
    },
    {
      "inputs": [
        {
          "internalType": "string",
          "name": "",
          "type": "string"
        }
      ],
      "name": "facilities",
      "outputs": [
        {
          "internalType": "string",
          "name": "id",
          "type": "string"
        },
        {
          "internalType": "string",
          "name": "name",
          "type": "string"
        },
        {
          "internalType": "string",
          "name": "location",
          "type": "string"
        },
        {
          "internalType": "string",
          "name": "renewableSource",
          "type": "string"
        },
        {
          "internalType": "uint256",
          "name": "capacity",
          "type": "uint256"
        },
        {
          "internalType": "address",
          "name": "producerId",
          "type": "address"
        },
        {
          "internalType": "bool",
          "name": "isActive",
          "type": "bool"
        },
        {
          "internalType": "uint256",
          "name": "createdAt",
          "type": "uint256"
        }
      ],
      "stateMutability": "view",
      "type": "function"
    },
    {
      "inputs": [
        {
          "internalType": "uint256",
          "name": "creditId",
          "type": "uint256"
        }
      ],
      "name": "getCredit",
      "outputs": [
        {
          "components": [
            {
              "internalType": "uint256",
              "name": "id",
              "type": "uint256"
            },
            {
              "internalType": "uint256",
              "name": "amount",
              "type": "uint256"
            },
            {
              "internalType": "string",
              "name": "renewableSource",
              "type": "string"
            },
            {
              "internalType": "uint256",
              "name": "productionDate",
              "type": "uint256"
            },
            {
              "internalType": "address",
              "name": "producerId",
              "type": "address"
            },
            {
              "internalType": "string",
              "name": "facilityId",
              "type": "string"
            },
            {
              "internalType": "bool",
              "name": "isValidated",
              "type": "bool"
            },
            {
              "internalType": "address",
              "name": "validatedBy",
              "type": "address"
            },
            {
              "internalType": "uint256",
              "name": "validatedAt",
              "type": "uint256"
            },
            {
              "internalType": "bool",
              "name": "isRetired",
              "type": "bool"
            },
            {
              "internalType": "address",
              "name": "ownerId",
              "type": "address"
            },
            {
              "internalType": "uint256",
              "name": "price",
              "type": "uint256"
            },
            {
              "internalType": "uint256",
              "name": "createdAt",
              "type": "uint256"
            }
          ],
          "internalType": "struct GreenHydrogenCredits.Credit",
          "name": "",
          "type": "tuple"
        }
      ],
      "stateMutability": "view",
      "type": "function"
    },
    {
      "inputs": [
        {
          "internalType": "string",
          "name": "facilityId",
          "type": "string"
        }
      ],
      "name": "getFacility",
      "outputs": [
        {
          "components": [
            {
              "internalType": "string",
              "name": "id",
              "type": "string"
            },
            {
              "internalType": "string",
              "name": "name",
              "type": "string"
            },
            {
              "internalType": "string",
              "name": "location",
              "type": "string"
            },
            {
              "internalType": "string",
              "name": "renewableSource",
              "type": "string"
            },
            {
              "internalType": "uint256",
              "name": "capacity",
              "type": "uint256"
            },
            {
              "internalType": "address",
              "name": "producerId",
              "type": "address"
            },
            {
              "internalType": "bool",
              "name": "isActive",
              "type": "bool"
            },
            {
              "internalType": "uint256",
              "name": "createdAt",
              "type": "uint256"
            }
          ],
          "internalType": "struct GreenHydrogenCredits.Facility",
          "name": "",
          "type": "tuple"
        }
      ],
      "stateMutability": "view",
      "type": "function"
    },
    {
      "inputs": [
        {
          "internalType": "address",
          "name": "owner",
          "type": "address"
        }
      ],
      "name": "getOwnerCredits",
      "outputs": [
        {
          "internalType": "uint256[]",
          "name": "",
          "type": "uint256[]"
        }
      ],
      "stateMutability": "view",
      "type": "function"
    },
    {
      "inputs": [
        {
          "internalType": "address",
          "name": "producer",
          "type": "address"
        }
      ],
      "name": "getProducerCredits",
      "outputs": [
        {
          "internalType": "uint256[]",
          "name": "",
          "type": "uint256[]"
        }
      ],
      "stateMutability": "view",
      "type": "function"
    },
    {
      "inputs": [],
      "name": "getTotalCredits",
      "outputs": [
        {
          "internalType": "uint256",
          "name": "",
          "type": "uint256"
        }
      ],
      "stateMutability": "view",
      "type": "function"
    },
    {
      "inputs": [],
      "name": "getTotalFacilities",
      "outputs": [
        {
          "internalType": "uint256",
          "name": "",
          "type": "uint256"
        }
      ],
      "stateMutability": "view",
      "type": "function"
    },
    {
      "inputs": [
        {
          "internalType": "address",
          "name": "account",
          "type": "address"
        },
        {
          "internalType": "address",
          "name": "operator",
          "type": "address"
        }
      ],
      "name": "isApprovedForAll",
      "outputs": [
        {
          "internalType": "bool",
          "name": "",
          "type": "bool"
        }
      ],
      "stateMutability": "view",
      "type": "function"
    },
    {
      "inputs": [
        {
          "internalType": "uint256",
          "name": "amount",
          "type": "uint256"
        },
        {
          "internalType": "string",
          "name": "renewableSource",
          "type": "string"
        },
        {
          "internalType": "uint256",
          "name": "productionDate",
          "type": "uint256"
        },
        {
          "internalType": "string",
          "name": "facilityId",
          "type": "string"
        },
        {
          "internalType": "uint256",
          "name": "price",
          "type": "uint256"
        }
      ],
      "name": "issueCredits",
      "outputs": [
        {
          "internalType": "uint256",
          "name": "",
          "type": "uint256"
        }
      ],
      "stateMutability": "nonpayable",
      "type": "function"
    },
    {
      "inputs": [],
      "name": "owner",
      "outputs": [
        {
          "internalType": "address",
          "name": "",
          "type": "address"
        }
      ],
      "stateMutability": "view",
      "type": "function"
    },
    {
      "inputs": [
        {
          "internalType": "address",
          "name": "",
          "type": "address"
        },
        {
          "internalType": "uint256",
          "name": "",
          "type": "uint256"
        }
      ],
      "name": "ownerCredits",
      "outputs": [
        {
          "internalType": "uint256",
          "name": "",
          "type": "uint256"
        }
      ],
      "stateMutability": "view",
      "type": "function"
    },
    {
      "inputs": [
        {
          "internalType": "address",
          "name": "",
          "type": "address"
        },
        {
          "internalType": "uint256",
          "name": "",
          "type": "uint256"
        }
      ],
      "name": "producerCredits",
      "outputs": [
        {
          "internalType": "uint256",
          "name": "",
          "type": "uint256"
        }
      ],
      "stateMutability": "view",
      "type": "function"
    },
    {
      "inputs": [
        {
          "internalType": "uint256",
          "name": "creditId",
          "type": "uint256"
        },
        {
          "internalType": "uint256",
          "name": "amount",
          "type": "uint256"
        }
      ],
      "name": "purchaseCredits",
      "outputs": [],
      "stateMutability": "payable",
      "type": "function"
    },
    {
      "inputs": [
        {
          "internalType": "address",
          "name": "validator",
          "type": "address"
        }
      ],
      "name": "removeValidator",
      "outputs": [],
      "stateMutability": "nonpayable",
      "type": "function"
    },
    {
      "inputs": [],
      "name": "renounceOwnership",
      "outputs": [],
      "stateMutability": "nonpayable",
      "type": "function"
    },
    {
      "inputs": [
        {
          "internalType": "uint256",
          "name": "creditId",
          "type": "uint256"
        }
      ],
      "name": "retireCredits",
      "outputs": [],
      "stateMutability": "nonpayable",
      "type": "function"
    },
    {
      "inputs": [
        {
          "internalType": "address",
          "name": "from",
          "type": "address"
        },
        {
          "internalType": "address",
          "name": "to",
          "type": "address"
        },
        {
          "internalType": "uint256[]",
          "name": "ids",
          "type": "uint256[]"
        },
        {
          "internalType": "uint256[]",
          "name": "values",
          "type": "uint256[]"
        },
        {
          "internalType": "bytes",
          "name": "data",
          "type": "bytes"
        }
      ],
      "name": "safeBatchTransferFrom",
      "outputs": [],
      "stateMutability": "nonpayable",
      "type": "function"
    },
    {
      "inputs": [
        {
          "internalType": "address",
          "name": "from",
          "type": "address"
        },
        {
          "internalType": "address",
          "name": "to",
          "type": "address"
        },
        {
          "internalType": "uint256",
          "name": "id",
          "type": "uint256"
        },
        {
          "internalType": "uint256",
          "name": "value",
          "type": "uint256"
        },
        {
          "internalType": "bytes",
          "name": "data",
          "type": "bytes"
        }
      ],
      "name": "safeTransferFrom",
      "outputs": [],
      "stateMutability": "nonpayable",
      "type": "function"
    },
    {
      "inputs": [
        {
          "internalType": "address",
          "name": "operator",
          "type": "address"
        },
        {
          "internalType": "bool",
          "name": "approved",
          "type": "bool"
        }
      ],
      "name": "setApprovalForAll",
      "outputs": [],
      "stateMutability": "nonpayable",
      "type": "function"
    },
    {
      "inputs": [
        {
          "internalType": "bytes4",
          "name": "interfaceId",
          "type": "bytes4"
        }
      ],
      "name": "supportsInterface",
      "outputs": [
        {
          "internalType": "bool",
          "name": "",
          "type": "bool"
        }
      ],
      "stateMutability": "view",
      "type": "function"
    },
    {
      "inputs": [
        {
          "internalType": "uint256",
          "name": "creditId",
          "type": "uint256"
        },
        {
          "internalType": "address",
          "name": "to",
          "type": "address"
        },
        {
          "internalType": "uint256",
          "name": "amount",
          "type": "uint256"
        }
      ],
      "name": "transferCredits",
      "outputs": [],
      "stateMutability": "nonpayable",
      "type": "function"
    },
    {
      "inputs": [
        {
          "internalType": "address",
          "name": "newOwner",
          "type": "address"
        }
      ],
      "name": "transferOwnership",
      "outputs": [],
      "stateMutability": "nonpayable",
      "type": "function"
    },
    {
      "inputs": [
        {
          "internalType": "uint256",
          "name": "",
          "type": "uint256"
        }
      ],
      "name": "uri",
      "outputs": [
        {
          "internalType": "string",
          "name": "",
          "type": "string"
        }
      ],
      "stateMutability": "view",
      "type": "function"
    },
    {
      "inputs": [
        {
          "internalType": "uint256",
          "name": "creditId",
          "type": "uint256"
        }
      ],
      "name": "validateCredits",
      "outputs": [],
      "stateMutability": "nonpayable",
      "type": "function"
    },
    {
      "inputs": [
        {
          "internalType": "address",
          "name": "",
          "type": "address"
        }
      ],
      "name": "validators",
      "outputs": [
        {
          "internalType": "bool",
          "name": "",
          "type": "bool"
        }
      ],
      "stateMutability": "view",
      "type": "function"
    }
  ],
  "bytecode": "0x6080346200014e57602081016001600160401b03811182821017620001385760405260008091526002546001908181811c911680156200012d575b60208210146200011957601f8111620000cf575b5050806002553315620000b75760038054336001600160a01b0319821681179092556040519291906001600160a01b03167f8be0079c531659141344cd1fd0a4f28419497f9722a3daafe3b4186f6b6457e08380a38060045560055561321f9081620001548239f35b60249060405190631e4fbdf760e01b82526004820152fd5b60028352601f0160051c7f405787fa12a823e0f2b7631cc41b3ba8828b3321ca811111fa75cd3aa3bb5ace908101905b8181106200010e57506200004e565b8381558201620000ff565b634e487b7160e01b83526022600452602483fd5b90607f16906200003a565b634e487b7160e01b600052604160045260246000fd5b600080fdfe6080604052600436101561001257600080fd5b60003560e01c8062fdd58e146101f657806301ffc9a7146101f1578063028644f2146101ec578063036a1c22146101e75780630e89341c146101e25780632039e339146101dd5780632eb2c2d6146101d8578063392f0ae4146101d35780633ef34fc9146101ce57806340a141ff146101c95780634d238c8e146101c45780634e1273f4146101bf578063575deba5146101ba578063715018a6146101b557806384034469146101b05780638da5cb5b146101ab57806394ead2d0146101a65780639c1a3d22146101a1578063a22cb4651461019c578063ad35b83d14610197578063b1fec29f14610192578063c326a5fd1461018d578063cd74ef7614610188578063d3965ea614610183578063da304e4d1461017e578063e14779cd14610179578063e985e9c514610174578063f242432a1461016f578063f2fde38b1461016a5763fa52c7d81461016557600080fd5b611b50565b611ac2565b611a09565b6119ac565b61191a565b61187d565b61175b565b611703565b6116b2565b61163a565b611554565b6113fa565b6113dc565b6112ac565b611283565b611061565b611000565b610f73565b610ec6565b610e81565b610e3f565b610dbb565b610cab565b610b33565b61098c565b6108b7565b61080a565b61041a565b61029f565b610240565b600435906001600160a01b038216820361021157565b600080fd5b602435906001600160a01b038216820361021157565b35906001600160a01b038216820361021157565b3461021157604036600319011261021157602061028461025e6101fb565b6024356000526000835260406000209060018060a01b0316600052602052604060002090565b54604051908152f35b6001600160e01b031981160361021157565b346102115760203660031901126102115760206004356102be8161028d565b63ffffffff60e01b16636cdb3d1360e11b81149081156102fc575b81156102eb575b506040519015158152f35b6301ffc9a760e01b149050386102e0565b6303a24d0760e21b811491506102d9565b634e487b7160e01b600052604160045260246000fd5b61010081019081106001600160401b0382111761033f57604052565b61030d565b6101a081019081106001600160401b0382111761033f57604052565b602081019081106001600160401b0382111761033f57604052565b90601f801991011681019081106001600160401b0382111761033f57604052565b604051906103a982610344565b565b604051906103a982610323565b6001600160401b03811161033f57601f01601f191660200190565b81601f82011215610211578035906103ea826103b8565b926103f8604051948561037b565b8284526020838301011161021157816000926020809301838601378301015290565b346102115760a036600319011261021157600480356001600160401b036024358181116102115761044e90369085016103d3565b906064359081116102115761046690369085016103d3565b61047861047282610c85565b54610647565b15610603577f131ad1454f066903293d063a059d45c0d4a7de8f6d0d0b2ee40373b15970e08e6105ff946104ad8515156126bb565b6104dc6104cc60056104be86610c85565b01546001600160a01b031690565b6001600160a01b03163314612707565b6104fd6104f860056104ed86610c85565b015460a01c60ff1690565b612748565b61050f61050a8254611bd1565b600455565b5493849261059261051e61039c565b8581526020810184905260408101879052604435606082015233608082015260a08101839052600060c0820181905260e082018190526101008201819052610120820152336101408201526084356101608201524261018082015261058d866000526006602052604060002090565b61278a565b6105a561059d611ff0565b838633612903565b3360009081526008602052604090206105bf908590612894565b3360009081526009602052604090206105d9908590612894565b6105ec60405192839233974292856128d5565b0390a36040519081529081906020820190565b0390f35b60405162461bcd60e51b8152602081860152601760248201527f466163696c69747920646f6573206e6f742065786973740000000000000000006044820152606490fd5b90600182811c92168015610677575b602083101461066157565b634e487b7160e01b600052602260045260246000fd5b91607f1691610656565b906040519182600082549261069584610647565b90818452600194858116908160001461070257506001146106bf575b50506103a99250038361037b565b9093915060005260209081600020936000915b8183106106ea5750506103a9935082010138806106b1565b855488840185015294850194879450918301916106d2565b9150506103a994506020925060ff191682840152151560051b82010138806106b1565b60005b8381106107385750506000910152565b8181015183820152602001610728565b9060209161076181518092818552858086019101610725565b601f01601f1916010190565b6107ef966101809c989f9e9d9a9596829c9760606107a96107df986108009e986107c798885260208801526101a0806040890152870190610748565b9401526001600160a01b031660808d01528b820360a08d0152610748565b9c151560c08a01526001600160a01b031660e0890152565b6101008701521515610120860152565b6001600160a01b0316610140840152565b6101608201520152565b34610211576020366003190112610211576004356000526006602052604060002080546105ff60018301549161084260028501610681565b9360038101549160018060a01b03806004840154169161086460058501610681565b90600685015490600786015492600887015495600a6009890154980154986040519c8d9c8d9560ff808b8d60081c169c169a8960081c1698169661076d565b9060206108b4928181520190610748565b90565b3461021157602080600319360112610211576040516000916002546108db81610647565b8084529060019081811690811561096c5750600114610911575b6105ff846109058188038261037b565b604051918291826108a3565b600260009081529294507f405787fa12a823e0f2b7631cc41b3ba8828b3321ca811111fa75cd3aa3bb5ace5b82841061095957505050816105ff9361090592820101936108f5565b805485850187015292850192810161093d565b60ff1916858501525050151560051b8201019150610905816105ff6108f5565b346102115760203660031901126102115760043560009080825260066020526109ba60408320541515612a49565b80825260066020526109d560ff600660408520015416612c12565b80825260066020526109fe6109f96109f56008604086200160ff90541690565b1590565b612bc6565b610a38610a3033610a19846000526000602052604060002090565b9060018060a01b0316600052602052604060002090565b541515612e25565b610a5b610a5333610a19846000526000602052604060002090565b548233612e68565b610a826008610a74836000526006602052604060002090565b01805460ff19166001179055565b610a8c813361312f565b6040514281523391907f480a76602f881eef8c7fd7402787f2e9065d323d5a6a120586b17a7b44c716ff90602090a380f35b6001600160401b03811161033f5760051b60200190565b81601f8201121561021157803591610aec83610abe565b92610afa604051948561037b565b808452602092838086019260051b820101928311610211578301905b828210610b24575050505090565b81358152908301908301610b16565b346102115760a036600319011261021157610b4c6101fb565b610b54610216565b90604435916001600160401b039081841161021157610b7860049436908601610ad5565b9060643583811161021157610b909036908701610ad5565b9260843590811161021157610ba890369087016103d3565b936001600160a01b03808216903382141580610c37575b610c0a57831615610bf25715610bdb57610bd99550611d3e565b005b604051626a0d4560e21b8152600081880152602490fd5b604051632bfa23e760e11b8152600081890152602490fd5b6040805163711bec9160e11b815233818b019081526001600160a01b038616602082015290918291010390fd5b50600082815260016020908152604080832033845290915290205460ff1615610bbf565b602060031982011261021157600435906001600160401b038211610211576108b4916004016103d3565b6020610c9e918160405193828580945193849201610725565b8101600781520301902090565b3461021157610d24610cc4610cbf36610c5b565b610c85565b610ccd81610681565b90610cda60018201610681565b60ff610ce860028401610681565b92610d4e610cf860038301610681565b610d40600484015496610d3260066005870154960154976040519b8c9b8c6101008091528d0190610748565b908b820360208d0152610748565b9089820360408b0152610748565b908782036060890152610748565b93608086015260018060a01b03811660a086015260a01c16151560c084015260e08301520390f35b90815180825260208080930193019160005b828110610d96575050505090565b835185529381019392810192600101610d88565b9060206108b4928181520190610d76565b3461021157602080600319360112610211576001600160a01b03610ddd6101fb565b1660005260098152604060002090604051908181845491828152019360005281600020916000905b828210610e28576105ff85610e1c8189038261037b565b60405191829182610daa565b835486529485019460019384019390910190610e05565b3461021157602036600319011261021157610e586101fb565b610e60611b8f565b6001600160a01b03166000908152600a60205260409020805460ff19169055005b3461021157602036600319011261021157610e9a6101fb565b610ea2611b8f565b6001600160a01b03166000908152600a60205260409020805460ff19166001179055005b34610211576040366003190112610211576004356001600160401b038082116102115736602383011215610211578160040135610f0281610abe565b92610f10604051948561037b565b81845260209160248386019160051b8301019136831161021157602401905b828210610f5c5785602435868111610211576105ff91610f56610e1c923690600401610ad5565b90611bf9565b838091610f688461022c565b815201910190610f2f565b346102115760a0366003190112610211576001600160401b0360043581811161021157610fa49036906004016103d3565b9060243581811161021157610fbd9036906004016103d3565b9160443582811161021157610fd69036906004016103d3565b92606435928311610211576105ff93610ff66109059436906004016103d3565b91608435936125d0565b346102115760008060031936011261105e5761101a611b8f565b600380546001600160a01b0319811690915581906001600160a01b03167f8be0079c531659141344cd1fd0a4f28419497f9722a3daafe3b4186f6b6457e08280a380f35b80fd5b60403660031901126102115760043560243590600091818352600660205261108e60408420541515612a49565b6110b76110b260066110aa856000526006602052604060002090565b015460ff1690565b612c12565b6110d66109f96109f560086110aa866000526006602052604060002090565b6111348161112d8461110860086110f7836000526006602052604060002090565b015460081c6001600160a01b031690565b6000918252602082815260408084206001600160a01b03909316845291905290205490565b1015612ce1565b611160611158826009611151866000526006602052604060002090565b0154612d2d565b341015612d40565b61117960086110f7846000526006602052604060002090565b917f1c82db50a2e82182c8a7e6474a1356957f120e4708170a82ab7407a2cbf9806f61124f6111b8846009611151866000526006602052604060002090565b936111d287808080898b5af16111cc612003565b50612d8c565b6111e66111dd611ff0565b8286338a611cbe565b6111fe86610a19866000526000602052604060002090565b5415611274575b61120f84336130c0565b6112198534612dd8565b8781611255575b5050604080519182526020820195909552429481019490945233946001600160a01b0316939081906060820190565b0390a480f35b80808061126d94335af1611267612003565b50612de5565b3887611220565b61127e848761312f565b611205565b34610211576000366003190112610211576003546040516001600160a01b039091168152602090f35b34610211576060366003190112610211576004356112c8610216565b90604435908060005260066020526112e66040600020541515612a49565b6113026110b260066110aa846000526006602052604060002090565b6113216109f96109f560086110aa856000526006602052604060002090565b6113458261133d33610a19856000526000602052604060002090565b541015612c5e565b6001600160a01b03831692611398908290611361861515612ca1565b61137561136c611ff0565b86848433611cbe565b61138d33610a19846000526000602052604060002090565b54156113cd576130c0565b6040805192835242602084015233927f4edc48c2934fd38a4f35465888f6802381eb0b2e73612222e8083da6cfc7b99e9190a4005b6113d7823361312f565b6130c0565b34610211576000366003190112610211576020600454604051908152f35b34610211576040366003190112610211576114136101fb565b6024359081151590818303610211576001600160a01b03811692831561149e5761145f6114709233600052600160205260406000209060018060a01b0316600052602052604060002090565b9060ff801983541691151516179055565b6040519081527f17307eab39ab6107e8899845ad3d59bd9653f200f220920489ca2b5937696c3160203392a3005b60405162ced3e160e81b815260006004820152602490fd5b60208152815160e06115216114d961010093846020870152610120860190610748565b61150c6114f8602088015192601f1993848983030160408a0152610748565b604088015183888303016060890152610748565b90606087015190868303016080870152610748565b608085015160a0858101919091528501516001600160a01b031660c08501529360c0810151151584830152015191015290565b34610211576105ff61156536610c5b565b60066115ab6040519261157784610323565b600060e060609586815286602082015286604082015286808201528260808201528260a08201528260c08201520152610c85565b604051926115b884610323565b6115c182610681565b84526115cf60018301610681565b60208501526115e060028301610681565b60408501526115f160038301610681565b908401526004810154608084015260058101546001600160a01b03811660a08501526116279060ff9060a01c16151560c0850152565b015460e0820152604051918291826114b6565b3461021157602080600319360112610211576001600160a01b0361165c6101fb565b1660005260088152604060002090604051908181845491828152019360005281600020916000905b82821061169b576105ff85610e1c8189038261037b565b835486529485019460019384019390910190611684565b34610211576000366003190112610211576020600554604051908152f35b634e487b7160e01b600052603260045260246000fd5b80548210156116fe5760005260206000200190600090565b6116d0565b346102115760403660031901126102115761171c6101fb565b6001600160a01b03166000908152600860205260409020805460243591908210156102115760209161174d916116e6565b90546040519160031b1c8152f35b34610211576040366003190112610211576117746101fb565b6001600160a01b03166000908152600960205260409020805460243591908210156102115760209161174d916116e6565b602081528151602082015260208201516040820152604082015161180f6117da6101a0928360608601526101c0850190610748565b60608501516080858101919091528501516001600160a01b031660a085015260a0850151848203601f190160c0860152610748565b60c0840151151560e08401529260e08101516001600160a01b0316610100848101919091528101516101209081850152810151611853610140918286019015159052565b8101516001600160a01b031661016084810191909152810151906101809182850152015191015290565b346102115760203660031901126102115760405161189a81610344565b61018060009182815282602082015260606040820152826060820152826080820152606060a08201528260c08201528260e08201528261010082015282610120820152826101408201528261016082015201526105ff61190e6119096004356000526006602052604060002090565b61300a565b604051918291826117a5565b34610211576020366003190112610211576003546001600160a01b03163314801580611989575b501561195257610bd9600435612a8d565b60405162461bcd60e51b815260206004820152600f60248201526e2737ba1030903b30b634b230ba37b960891b6044820152606490fd5b611994575b38611941565b5033600052600a60205260ff6040600020541661198e565b3461021157604036600319011261021157602060ff6119fd6119cc6101fb565b6119d4610216565b6001600160a01b0391821660009081526001865260408082209290931681526020919091522090565b54166040519015158152f35b346102115760a036600319011261021157611a226101fb565b611a2a610216565b6084356001600160401b03811161021157611a499036906004016103d3565b906001600160a01b038316338114159081611a9c575b50611a7557610bd9926064359160443591611cbe565b60405163711bec9160e11b81523360048201526001600160a01b0384166024820152604490fd5b6000908152600160209081526040808320338452909152902060ff915054161538611a5f565b3461021157602036600319011261021157611adb6101fb565b611ae3611b8f565b6001600160a01b03908116908115611b3757600354826bffffffffffffffffffffffff60a01b821617600355167f8be0079c531659141344cd1fd0a4f28419497f9722a3daafe3b4186f6b6457e0600080a3005b604051631e4fbdf760e01b815260006004820152602490fd5b34610211576020366003190112610211576001600160a01b03611b716101fb565b16600052600a602052602060ff604060002054166040519015158152f35b6003546001600160a01b03163303611ba357565b60405163118cdaa760e01b8152336004820152602490fd5b634e487b7160e01b600052601160045260246000fd5b6000198114611be05760010190565b611bbb565b80518210156116fe5760209160051b010190565b91909180518351808203611c9c575050805190611c1582610abe565b91611c23604051938461037b565b808352611c32601f1991610abe565b0190602091368385013760005b8151811015611c9457600581901b8281018401519087018401516000908152602081815260408083206001600160a01b0390941683529290522054611c8f9190611c898287611be5565b52611bd1565b611c3f565b509193505050565b604051635b05999160e01b815260048101919091526024810191909152604490fd5b92939290916001600160a01b0380841615611d2557821615611d0d576103a994611d0560405192600184526020840152604083019160018352606084015260808301604052565b929091611d3e565b604051626a0d4560e21b815260006004820152602490fd5b604051632bfa23e760e11b815260006004820152602490fd5b949190918151845190818103611c9c57505060005b8251811015611e4f57600581901b83810160209081015191870101516001600160a01b03929186908a8516611dc8575b611d96948216611d9b575b505050611bd1565b611d53565b611dbe91610a19611db6926000526000602052604060002090565b918254611f45565b9055388581611d8e565b9192939050611de58a610a19846000526000602052604060002090565b54838110611e185791879184611d9696959403611e108d610a19856000526000602052604060002090565b559450611d83565b6040516303dee4c560e01b81526001600160a01b038c16600482015260248101919091526044810184905260648101839052608490fd5b509491939290936001855114600014611efa576020858101518382015160408051928352928201526001600160a01b03838116929086169133917fc3d58168c5ae7397731d063d5bbf3d657854427343f4c083240f7aacaa2d0f6291a45b6001600160a01b038116611ec3575b5050505050565b8451600103611ee957602080611edf960151920151923361212d565b3880808080611ebc565b611ef594919233612279565b611edf565b6040516001600160a01b03828116919085169033907f4a39dc06d4c0dbc64b70af90fd698a233a518aa5d07e595d983b8c0526c8f7fb9080611f3d888c83611f52565b0390a4611ead565b91908201809211611be057565b9091611f696108b493604084526040840190610d76565b916020818403910152610d76565b9081602091031261021157516108b48161028d565b909260a0926108b49594600180861b0316835260006020840152604083015260608201528160808201520190610748565b91926108b495949160a094600180871b038092168552166020840152604083015260608201528160808201520190610748565b60405190611ffd82610360565b60008252565b3d1561202e573d90612014826103b8565b91612022604051938461037b565b82523d6000602084013e565b606090565b9293919093843b612045575050505050565b602091612068604051948593849363f23a6e6160e01b9889865260048601611f8c565b038160006001600160a01b0388165af1600091816120fd575b506120c0578261208f612003565b80519190826120b957604051632bfa23e760e11b81526001600160a01b0383166004820152602490fd5b6020915001fd5b6001600160e01b031916036120da57503880808080611ebc565b604051632bfa23e760e11b81526001600160a01b03919091166004820152602490fd5b61211f91925060203d8111612126575b612117818361037b565b810190611f77565b9038612081565b503d61210d565b939290949194853b612142575b505050505050565b612165602093604051958694859463f23a6e6160e01b998a875260048701611fbd565b038160006001600160a01b0388165af1600091816121a7575b5061218c578261208f612003565b6001600160e01b031916036120da575038808080808061213a565b6121c091925060203d811161212657612117818361037b565b903861217e565b926121f66108b495936122049360018060a01b031686526000602087015260a0604087015260a0860190610d76565b908482036060860152610d76565b916080818403910152610748565b93906108b495936121f6916122049460018060a01b03809216885216602087015260a0604087015260a0860190610d76565b9293919093843b612256575050505050565b602091612068604051948593849363bc197c8160e01b98898652600486016121c7565b939290949194853b61228d57505050505050565b612165602093604051958694859463bc197c8160e01b998a875260048701612212565b6108b49054610647565b156122c157565b60405162461bcd60e51b815260206004820152601760248201527f466163696c69747920616c7265616479206578697374730000000000000000006044820152606490fd5b90601f811161231457505050565b600091825260208220906020601f850160051c83019410612350575b601f0160051c01915b82811061234557505050565b818155600101612339565b9092508290612330565b91909182516001600160401b03811161033f576123818161237b8454610647565b84612306565b602080601f83116001146123bd5750819293946000926123b2575b50508160011b916000199060031b1c1916179055565b01519050388061239c565b90601f198316956123d385600052602060002090565b926000905b888210612410575050836001959697106123f7575b505050811b019055565b015160001960f88460031b161c191690553880806123ed565b806001859682949686015181550195019301906123d8565b90805180516001600160401b03811161033f5761244f816124498654610647565b86612306565b6020918290601f831160011461251e579282600695936124959360e096600092612513575b50508160011b916000199060031b1c19161786555b8201516001860161235a565b6124a660408201516002860161235a565b6124b760608201516003860161235a565b6080810151600485015560a08101516005850180546001600160a01b0319166001600160a01b0390921691909117815561250c9060c08301511515815460ff60a01b191690151560a01b60ff60a01b16179055565b0151910155565b015190503880612474565b90601f1983169161253487600052602060002090565b9260005b81811061257d5750936124959360e096936001938360069a9810612564575b505050811b018655612489565b015160001960f88460031b161c19169055388080612557565b929386600181928786015181550195019301612538565b6125ac90602060405192828480945193849201610725565b810103902090565b9291906125cb602091604086526040860190610748565b930152565b93929190928451156126805761263f926125fa6125f46125ef88610c85565b6122b0565b156122ba565b6126026103ab565b868152602081018690526040810193909352606083015260808201523360a0820152600160c08201524260e082015261263a84610c85565b612428565b61264882612594565b7f5d81b06abef539428c456eeff3ee4d43c55727b33969a8a370345cd81d91f8136040518061267a33954290836125b4565b0390a390565b60405162461bcd60e51b8152602060048201526013602482015272125b9d985b1a5908199858da5b1a5d1e481251606a1b6044820152606490fd5b156126c257565b60405162461bcd60e51b815260206004820152601d60248201527f416d6f756e74206d7573742062652067726561746572207468616e20300000006044820152606490fd5b1561270e57565b60405162461bcd60e51b81526020600482015260126024820152712737ba103330b1b4b634ba3c9037bbb732b960711b6044820152606490fd5b1561274f57565b60405162461bcd60e51b8152602060048201526013602482015272466163696c697479206e6f742061637469766560681b6044820152606490fd5b90610180600a9180518455602081015160018501556127b060408201516002860161235a565b6060810151600385015560808101516004850180546001600160a01b0319166001600160a01b039092169190911790556127f160a08201516005860161235a565b61284b6006850161281a61280860c0850151151590565b829060ff801983541691151516179055565b60e08301516001600160a01b03165b8154610100600160a81b03191660089190911b610100600160a81b0316179055565b61010081015160078501556128826008850161286e612808610120850151151590565b6101408301516001600160a01b0316612829565b61016081015160098501550151910155565b908154916801000000000000000083101561033f57826128bc9160016103a9950181556116e6565b90919082549060031b91821b91600019901b1916179055565b9493926128f56060936125cb938852608060208901526080880190610748565b908682036040880152610748565b6001600160a01b03811693929091908415611d255761293f60405192600184526020840152604083019160018352606084015260808301604052565b928151845190818103611c9c57505060005b825181101561299657806129919160051b61298a611db687610a19602080868b010151958c010151946000526000602052604060002090565b9055611bd1565b612951565b509291936001825114600014612a0d5760208281015184820151604080519283529282015260009133917fc3d58168c5ae7397731d063d5bbf3d657854427343f4c083240f7aacaa2d0f629190a45b8051600103612a0357906020806103a9959301519101519133612033565b6103a99333612244565b60006040517f4a39dc06d4c0dbc64b70af90fd698a233a518aa5d07e595d983b8c0526c8f7fb339180612a41888883611f52565b0390a46129e5565b15612a5057565b60405162461bcd60e51b815260206004820152601560248201527410dc99591a5d08191bd95cc81b9bdd08195e1a5cdd605a1b6044820152606490fd5b806000526006602052612aa66040600020541515612a49565b80600052600660205260ff60066040600020015416612b8157612ade6109f96109f560086110aa856000526006602052604060002090565b612af76006610a74836000526006602052604060002090565b612b37336006612b11846000526006602052604060002090565b018054610100600160a81b03191660089290921b610100600160a81b0316919091179055565b426007612b4e836000526006602052604060002090565b01556040514281523391907f2e0e2b1bd94d4524c1e10f43c441294a60ec3b6545d32990e2b62f5e3b8effa090602090a3565b60405162461bcd60e51b815260206004820152601960248201527f4372656469747320616c72656164792076616c696461746564000000000000006044820152606490fd5b15612bcd57565b60405162461bcd60e51b815260206004820152601760248201527f4372656469747320616c726561647920726574697265640000000000000000006044820152606490fd5b15612c1957565b60405162461bcd60e51b815260206004820152601960248201527f43726564697473206d7573742062652076616c696461746564000000000000006044820152606490fd5b15612c6557565b60405162461bcd60e51b8152602060048201526014602482015273496e73756666696369656e742062616c616e636560601b6044820152606490fd5b15612ca857565b60405162461bcd60e51b8152602060048201526011602482015270125b9d985b1a59081c9958da5c1a595b9d607a1b6044820152606490fd5b15612ce857565b60405162461bcd60e51b815260206004820152601e60248201527f496e73756666696369656e74206372656469747320617661696c61626c6500006044820152606490fd5b81810292918115918404141715611be057565b15612d4757565b60405162461bcd60e51b815260206004820152601860248201527f496e73756666696369656e7420455448207061796d656e7400000000000000006044820152606490fd5b15612d9357565b60405162461bcd60e51b815260206004820152601d60248201527f455448207472616e7366657220746f2073656c6c6572206661696c65640000006044820152606490fd5b91908203918211611be057565b15612dec57565b60405162461bcd60e51b8152602060048201526011602482015270115512081c99599d5b990819985a5b1959607a1b6044820152606490fd5b15612e2c57565b60405162461bcd60e51b81526020600482015260146024820152734e6f206372656469747320746f2072657469726560601b6044820152606490fd5b6001600160a01b038116929091908315611d0d57612ea360405192600184526020840152604083019160018352606084015260808301604052565b919060409460008651612eb581610360565b528151845190818103612fe957505060005b8251811015612f62578060051b60208082860101519187010151612ef986610a19846000526000602052604060002090565b54818110612f2c5786610a19612f27959493612f219303936000526000602052604060002090565b55611bd1565b612ec7565b89516303dee4c560e01b81526001600160a01b038816600482015260248101919091526044810182905260648101839052608490fd5b50949060009493925060018151148514612fb75760209081015192810151915192835282015233907fc3d58168c5ae7397731d063d5bbf3d657854427343f4c083240f7aacaa2d0f629080604081015b0390a4565b905133927f4a39dc06d4c0dbc64b70af90fd698a233a518aa5d07e595d983b8c0526c8f7fb928291612fb29183611f52565b8751635b05999160e01b815260048101919091526024810191909152604490fd5b90600a61301561039c565b92805484526001810154602085015261303060028201610681565b60408501526003810154606085015260048101546001600160a01b0316608085015261305e60058201610681565b60a0850152600681015460ff808216151560c08701526001600160a01b03600892831c811660e08801526007840154610100880152828401549182161515610120880152911c1661014085015260098101546101608501520154610180830152565b9060005b6001600160a01b0383166000908152600960205260409020805482101561310f576130f08284926116e6565b90549060031b1c1461310a5761310590611bd1565b6130c4565b505050565b50506103a99160018060a01b031660005260096020526040600020612894565b6001600160a01b03166000908152600960205260408120909190825b815480821015611ebc57839061316183856116e6565b929054600393841b1c1461317f57505061317a90611bd1565b61314b565b90949293506000199291838201918211611be0576128bc6131a36131b093876116e6565b905490881b1c91866116e6565b82549081156131d557508101926131c784846116e6565b81939154921b1b1916905555565b634e487b7160e01b81526031600452602490fdfea2646970667358221220420bce344b0c66a8a1f1529523acfa69917d0383e87457abfc304766d52ef6b764736f6c63430008140033",
  "linkReferences": {},
  "deployedLinkReferences": {}
}